:1000B2000D0848656C6C6F2C576F726C64210013CD
:1000C20015492077696C6C20646F206D7920626518
:0400D2007374210022
:0D011F00EFD3940040077ED2DEFE1F80F378
:01012C0022B0
:10000300C2AF53890F438920759850758DFA758B4C
:0D001300FA438780D2ACD28ED29CD2AF22AD
:060138008F993099FD22B1
:10010C001200F3FF600C120138740129F9E43AFA79
:03011C0080EE2250
:1000D7001200037B007A00790812010C7FD012010D
:0C00E7001F7A00791512010CE4FEFF22C4
:0300230002012DAA
:0B012D00309802C298309902C299324B
:03000000020026D5
:0C002600787FE4F6D8FD75812702006D9C
:100032000200D7E493A3F8E493A34003F68001F20D
:1000420008DFF48029E493A3F85407240CC8C333CF
:10005200C4540F4420C8834004F456800146F6DF9E
:10006200E4800B01020408102040809000B2E47E7C
:10007200019360BCA3FF543F30E509541FFEE49393
:10008200A360010ECF54C025E060A840B8E493A35A
:10009200FAE493A3F8E493A3C8C582C8CAC583CA85
:1000A200F0A3C8C582C8CAC583CADFE9DEE780BE3D
:0100D6000029
:1000F300BB010689828A83E0225002E722BBFE020B
:09010300E32289828A83E493223D
:00000001FF
